275P2116KR4275P21164미국달러 C 201902 1,160.0                         3USD    200010000000001000000000000                 
275P2115KR4275P21156미국달러 C 201902 1,150.0                         3USD    200010000000001000000000000                 
275P2114KR4275P21149미국달러 C 201902 1,140.0                         3USD    200010000000001000000000000                 
275P2113KR4275P21131미국달러 C 201902 1,130.0                         1USD    200010000000001000000000000                 
275P2112KR4275P21123미국달러 C 201902 1,120.0                         2USD    200010000000001000000000000                 
275P2111KR4275P21115미국달러 C 201902 1,110.0                         2USD    200010000000001000000000000                 
275P2110KR4275P21107미국달러 C 201902 1,100.0                         2USD    200010000000001000000000000                 
275P2109KR4275P21099미국달러 C 201902 1,090.0                         2USD    200010000000001000000000000                 
275P2108KR4275P21081미국달러 C 201902 1,080.0                         2USD    200010000000001000000000000                 
275P3117KR4275P31171미국달러 C 201903 1,170.0                         3USD    200010000000001000000000000                 
275P3116KR4275P31163미국달러 C 201903 1,160.0                         3USD    200010000000001000000000000                 
275P3115KR4275P31155미국달러 C 201903 1,150.0                         3USD    200010000000001000000000000                 
275P3114KR4275P31148미국달러 C 201903 1,140.0                         3USD    200010000000001000000000000                 
275P3113KR4275P31130미국달러 C 201903 1,130.0                         1USD    200010000000001000000000000                 
275P3112KR4275P31122미국달러 C 201903 1,120.0                         2USD    200010000000001000000000000                 
275P3111KR4275P31114미국달러 C 201903 1,110.0                         2USD    200010000000001000000000000                 
275P3110KR4275P31106미국달러 C 201903 1,100.0                         2USD    200010000000001000000000000                 
275P3109KR4275P31098미국달러 C 201903 1,090.0                         2USD    200010000000001000000000000                 
275P3108KR4275P31080미국달러 C 201903 1,080.0                         2USD    200010000000001000000000000                 
275P4116KR4275P41162미국달러 C 201904 1,160.0                         3USD    200010000000001000000000000                 
275P4115KR4275P41154미국달러 C 201904 1,150.0                         3USD    200010000000001000000000000                 
275P4114KR4275P41147미국달러 C 201904 1,140.0                         3USD    200010000000001000000000000                 
275P4113KR4275P41139미국달러 C 201904 1,130.0                         1USD    200010000000001000000000000                 
275P4112KR4275P41121미국달러 C 201904 1,120.0                         2USD    200010000000001000000000000                 
275P4111KR4275P41113미국달러 C 201904 1,110.0                         2USD    200010000000001000000000000                 
275P4110KR4275P41105미국달러 C 201904 1,100.0                         2USD    200010000000001000000000000                 
275P6116KR4275P61160미국달러 C 201906 1,160.0                         3USD    200010000000001000000000000                 
275P6115KR4275P61152미국달러 C 201906 1,150.0                         3USD    200010000000001000000000000                 
275P6114KR4275P61145미국달러 C 201906 1,140.0                         3USD    200010000000001000000000000                 
275P6113KR4275P61137미국달러 C 201906 1,130.0                         1USD    200010000000001000000000000                 
275P6112KR4275P61129미국달러 C 201906 1,120.0                         2USD    200010000000001000000000000                 
275P6111KR4275P61111미국달러 C 201906 1,110.0                         2USD    200010000000001000000000000                 
275P6110KR4275P61103미국달러 C 201906 1,100.0                         2USD    200010000000001000000000000                 
275P6109KR4275P61095미국달러 C 201906 1,090.0                         2USD    200010000000001000000000000                 
375P2116KR4375P21162미국달러 P 201902 1,160.0                         2USD    200010000000001000000000000                 
375P2115KR4375P21154미국달러 P 201902 1,150.0                         2USD    200010000000001000000000000                 
375P2114KR4375P21147미국달러 P 201902 1,140.0                         2USD    200010000000001000000000000                 
375P2113KR4375P21139미국달러 P 201902 1,130.0                         1USD    200010000000001000000000000                 
375P2112KR4375P21121미국달러 P 201902 1,120.0                         3USD    200010000000001000000000000                 
375P2111KR4375P21113미국달러 P 201902 1,110.0                         3USD    200010000000001000000000000                 
375P2110KR4375P21105미국달러 P 201902 1,100.0                         3USD    200010000000001000000000000                 
375P2109KR4375P21097미국달러 P 201902 1,090.0                         3USD    200010000000001000000000000                 
375P2108KR4375P21089미국달러 P 201902 1,080.0                         3USD    200010000000001000000000000                 
375P3117KR4375P31179미국달러 P 201903 1,170.0                         2USD    200010000000001000000000000                 
375P3116KR4375P31161미국달러 P 201903 1,160.0                         2USD    200010000000001000000000000                 
375P3115KR4375P31153미국달러 P 201903 1,150.0                         2USD    200010000000001000000000000                 
375P3114KR4375P31146미국달러 P 201903 1,140.0                         2USD    200010000000001000000000000                 
375P3113KR4375P31138미국달러 P 201903 1,130.0                         1USD    200010000000001000000000000                 
375P3112KR4375P31120미국달러 P 201903 1,120.0                         3USD    200010000000001000000000000                 
375P3111KR4375P31112미국달러 P 201903 1,110.0                         3USD    200010000000001000000000000                 
375P3110KR4375P31104미국달러 P 201903 1,100.0                         3USD    200010000000001000000000000                 
375P3109KR4375P31096미국달러 P 201903 1,090.0                         3USD    200010000000001000000000000                 
375P3108KR4375P31088미국달러 P 201903 1,080.0                         3USD    200010000000001000000000000                 
375P4116KR4375P41160미국달러 P 201904 1,160.0                         2USD    200010000000001000000000000                 
375P4115KR4375P41152미국달러 P 201904 1,150.0                         2USD    200010000000001000000000000                 
375P4114KR4375P41145미국달러 P 201904 1,140.0                         2USD    200010000000001000000000000                 
375P4113KR4375P41137미국달러 P 201904 1,130.0                         1USD    200010000000001000000000000                 
375P4112KR4375P41129미국달러 P 201904 1,120.0                         3USD    200010000000001000000000000                 
375P4111KR4375P41111미국달러 P 201904 1,110.0                         3USD    200010000000001000000000000                 
375P4110KR4375P41103미국달러 P 201904 1,100.0                         3USD    200010000000001000000000000                 
375P6116KR4375P61168미국달러 P 201906 1,160.0                         2USD    200010000000001000000000000                 
375P6115KR4375P61150미국달러 P 201906 1,150.0                         2USD    200010000000001000000000000                 
375P6114KR4375P61143미국달러 P 201906 1,140.0                         2USD    200010000000001000000000000                 
375P6113KR4375P61135미국달러 P 201906 1,130.0                         1USD    200010000000001000000000000                 
375P6112KR4375P61127미국달러 P 201906 1,120.0                         3USD    200010000000001000000000000                 
375P6111KR4375P61119미국달러 P 201906 1,110.0                         3USD    200010000000001000000000000                 
375P6110KR4375P61101미국달러 P 201906 1,100.0                         3USD    200010000000001000000000000                 
375P6109KR4375P61093미국달러 P 201906 1,090.0                         3USD    200010000000001000000000000                 
