175P2000KR4175P20002미국달러 F 201902             USD    200010000000001000000000000                 
175P3000KR4175P30001미국달러 F 201903             USD    200010000000001000000000000                 
175P4000KR4175P40000미국달러 F 201904             USD    200010000000001000000000000                 
175P5000KR4175P50009미국달러 F 201905             USD    200010000000001000000000000                 
175P6000KR4175P60008미국달러 F 201906             USD    200010000000001000000000000                 
175P7000KR4175P70007미국달러 F 201907             USD    200010000000001000000000000                 
175P8000KR4175P80006미국달러 F 201908             USD    200010000000001000000000000                 
175P9000KR4175P90005미국달러 F 201909             USD    200010000000001000000000000                 
175PA000KR4175PA0005미국달러 F 201910             USD    200010000000001000000000000                 
175PB000KR4175PB0004미국달러 F 201911             USD    200010000000001000000000000                 
175PC000KR4175PC0003미국달러 F 201912             USD    200010000000001000000000000                 
175Q3000KR4175Q30009미국달러 F 202003             USD    200010000000001000000000000                 
175Q6000KR4175Q60006미국달러 F 202006             USD    200010000000001000000000000                 
175Q9000KR4175Q90003미국달러 F 202009             USD    200010000000001000000000000                 
175QC000KR4175QC0002미국달러 F 202012             USD    200010000000001000000000000                 
175R3000KR4175R30007미국달러 F 202103             USD    200010000000001000000000000                 
175R6000KR4175R60004미국달러 F 202106             USD    200010000000001000000000000                 
175R9000KR4175R90001미국달러 F 202109             USD    200010000000001000000000000                 
175RC000KR4175RC0001미국달러 F 202112             USD    200010000000001000000000000                 
